:020000040800F2
:1000000000000220D5CE00088901000895010008F3
:100010009D010008A5010008AD01000800000000D6
:10002000000000000000000000000000D55900089A
:10003000B501000800000000CD5B00081D5C000851
:1000400021CF000821CF000821CF000821CF0008D0
:1000500021CF000821CF00088D390008D9390008C8
:10006000253A0008713A000821CF000821CF000886
:1000700021CF000821CF000821CF000821CF0008A0
:1000800021CF000821CF000821CF000821CF000890
:1000900021CF000821CF000821CF000821CF000880
:1000A00021CF000821CF000821CF000821CF000870
:1000B00021CF0008E951000821CF000821CF000816
:1000C00021CF000821CF000821CF000821CF000850
:1000D00021CF000821CF000821CF0008893D00086A
:1000E00021CF000821CF000821CF000821CF000830
:1000F00021CF000821CF000821CF000821CF000820
:1001000021CF000821CF000821CF000821CF00080F
:1001100021CF000821CF000821CF000821CF0008FF
:1001200021CF000821CF000821CF000821CF0008EF
:1001300021CF000821CF000821CF000821CF0008DF
:1001400021CF000821CF000821CF000821CF0008CF
:1001500021CF000821CF000821CF000821CF0008BF
:1001600021CF000821CF000821CF000821CF0008AF
:1001700021CF000821CF000821CF000821CF00089F
:0801800021CF000821CF000887
:1001880080B400AFBD4680BC704700BF80B400AFEC
:10019800FEE700BF80B400AFFEE700BF80B400AF49
:1001A800FEE700BF80B400AFFEE700BF80B400AF39
:1001B800BD4680BC704700BF80B500AF4FF46053A8
:1001C800C4F202034FF46052C4F20202126842F011
:1001D80001021A604FF46053C4F202034FF00002A8
:1001E8009A604FF46053C4F202034FF46052C4F2B1
:1001F8000202126822F0847222F480321A604FF4EC
:100208006053C4F2020343F21002C2F200425A6081
:100218004FF46053C4F202034FF46052C4F2020276
:10022800126822F480221A604FF46053C4F2020369
:100238004FF00002DA6000F0CFF84FF46D43CEF2D1
:1002480000034FF000629A604FF46D43CEF2000352
:100258004FF46D42CEF20002D2F8882042F47002C8
:10026800C3F8882080BD00BF80B487B000AF4FF0CE
:1002780000033B614FF000037B614FF00203FB601A
:100288004FF00003BB604FF002037B604FF46053F4
:10029800C4F202039B6803F00C033B613B69042B27
:1002A8000DD0082B15D0002B69D140F20003C2F203
:1002B80000034FF41052C0F2F4021A6069E040F2F1
:1002C8000003C2F200034FF49052C0F27A021A609F
:1002D8005FE04FF46053C4F202035B6803F48003E9
:1002E8004FEA9353BB604FF46053C4F202035B6858
:1002F80003F03F037B60BB68002B14D04FF490538E
:10030800C0F27A037A68B3FBF2F24FF46053C4F296
:100318000203596847F6C0730B404FEA931303FB77
:1003280002F37B6113E04FF41053C0F2F4037A68D0
:10033800B3FBF2F24FF46053C4F20203596847F674
:10034800C0730B404FEA931303FB02F37B614FF436
:100358006053C4F202035B6803F440334FEA13436B
:1003680003F101034FEA4303FB607A69FB68B2FBC0
:10037800F3F240F20003C2F200031A6009E040F20F
:100388000003C2F200034FF41052C0F2F4021A60E4
:1003980000BF4FF46053C4F202039B6803F0F003FC
:1003A8004FEA131240F20403C2F200039B5CDBB273
:1003B8003B6140F20003C2F200031A683B6922FA6B
:1003C80003F240F20003C2F200031A6007F11C07AF
:1003D800BD4680BC704700BF80B483B000AF4FF00B
:1003E80000037B604FF000033B604FF46053C4F29E
:1003F80002034FF46052C4F20202126842F48032DF
:100408001A604FF46053C4F202031B6803F400330C
:100418003B607B6803F101037B603B68002B03D1E1
:100428007B68B3F5A06FECD14FF46053C4F20203BC
:100438001B6803F40033002B03D04FF001033B602B
:1004480002E04FF000033B603B68012B40F08280E4
:100458004FF46053C4F202034FF46052C4F2020234
:10046800126C42F080521A644FF4E043C4F2000365
:100478004FF4E042C4F20002126842F480421A606B
:100488004FF46053C4F202034FF46052C4F2020204
:1004980092689A604FF46053C4F202034FF46052BA
:1004A800C4F20202926842F400429A604FF4605328
:1004B800C4F202034FF46052C4F20202926842F49A
:1004C800A0529A604FF46053C4F2020345F2084206
:1004D800C0F240725A604FF46053C4F202034FF402
:1004E8006052C4F20202126842F080721A6000BFC1
:1004F8004FF46053C4F202031B6803F00073002B2F
:10050800F6D04FF47053C4F2020340F205621A6049
:100518004FF46053C4F202034FF46052C4F2020273
:10052800926822F003029A604FF46053C4F2020307
:100538004FF46052C4F20202926842F002029A60DA
:1005480000BF4FF46053C4F202039B6803F00C032E
:10055800082BF6D14FF46053C4F202034FF46052F3
:10056800C4F20202926822F400029A604FF46053C7
:10057800C4F202034FF44052C5F20002C3F88420CB
:100588004FF46053C4F202034FF46052C4F2020203
:10059800126842F080621A6000BF4FF46053C4F2E0
:1005A80002031B6803F00063002BF6D007F10C0769
:1005B800BD4680BC704700BF80B584B000AF78608E
:1005C8004FF00003FB604FF0000006F0BDFB07F1A1
:1005D8001007BD4680BD00BF80B582B000AF4FF0A8
:1005E8000C004FF0010109F099FD4FF470433B6096
:1005F8004FF001033B714FF00003BB714FF0030351
:100608007B714FF00003FB713B464FF44060C4F22E
:100618000200194609F00AF84FF44060C4F20200DB
:100628004FF480514FF0000209F056F94FF4406042
:10063800C4F202004FF400514FF0000209F04CF9E7
:100648004FF44060C4F202004FF480414FF00002C2
:1006580009F042F94FF44060C4F202004FF400413F
:100668004FF0000209F038F907F10807BD4680BDD0
:1006780080B400AFBD4680BC704700BF80B500AFF6
:1006880005F092FAFEE700BF80B400AFBD4680BC1B
:10069800704700BF80B582B000AF7860396005F060
:1006A80083FAFEE780B586B004AF4FF00003FB7114
:1006B8004FF4407008F0B2FC4FF4165003F0DEFA25
:1006C800FFF78AFF00F0CCFD03F020FF0346002B64
:1006D8000CD04FF44060C4F202004FF480414FF058
:1006E800010209F0F9F84FF0000392E04FF440607E
:1006F800C4F202004FF480514FF0010209F0ECF807
:100708004FF47A7004F04EFA4FF44060C4F20200DD
:100718004FF480514FF0000209F0DEF84DF67850A2
:10072800C0F600000CF028FC4FF0020300934FF0D5
:10073800000301934FF0000302934FF0000303936B
:1007480042F6B150C0F600004DF69451C0F60001D3
:100758004FF400524FF0000306F016FA0346FB71FF
:100768004FF0030300934FF0000301934FF0000391
:1007780002934FF00003039344F2FD20C0F60000FB
:100788004DF6AC51C0F600014FF480624FF0000303
:1007980006F0FAF90346DAB2FB791340DBB2FB71D3
:1007A8004FF0010300934FF0000301934FF0000353
:1007B80002934FF00003039342F2A160C0F60000D9
:1007C8004DF6C451C0F600014FF480624FF00003AB
:1007D80006F0DAF90346DAB2FB791340DBB2FB71B3
:1007E800FB79012B0ED14DF6D450C0F600000CF069
:1007F800C3FB4DF6EC50C0F600000CF0BDFB06F054
:10080800AFFD05E04DF60060C0F600000CF0B4FB4B
:10081800FEE7184607F10807BD4680BD80B485B0DD
:1008280000AFF860B9607A604FF0FF33184607F1FF
:100838001407BD4680BC704780B584B000AFF8602F
:10084800B9607A600CF06AFB03464FF016021A6032
:100858004FF0FF33184607F11007BD4680BD00BFB3
:1008680080B485B000AFF860B9607A604FF00003DB
:10087800184607F11407BD4680BC704780B586B09E
:1008880000AFF860B9607A604FF000037B6119E04F
:1008980000BF4FF49043C4F200031B889BB203F0DF
:1008A8004003002BF5D07B69BA68D3181B784FF446
:1008B8009040C4F2000019460CF056F87B6903F129
:1008C80001037B617A697B689A42E1DB7B681846A1
:1008D80007F11807BD4680BD80B483B000AF7860CB
:1008E8004FF00003184607F10C07BD4680BC70475F
:1008F80080B584B000AF786040F2FC03C2F2000318
:100908001B68002B08D140F2FC03C2F200034DF231
:100918001412C2F201021A6040F2FC03C2F2000390
:100928001B68FB6040F2FC03C2F200031A687B6894
:10093800D2186B469A4208D90CF0F0FA03464FF0E9
:100948000C021A604FF0FF330CE040F2FC03C2F2D5
:1009580000031A687B68D21840F2FC03C2F2000355
:100968001A60FB68184607F11007BD4680BD00BF36
:1009780080B582B000AF7860396038684FF0000108
:100988004FF03C0203F0BEFA3B684FF400525A6045
:100998004FF00003184607F10807BD4680BD00BFA9
:1009A80080B483B000AF78604FF00103184607F1B8
:1009B8000C07BD4680BC704780B582B000AF786038
:1009C80039600CF0ABFA03464FF016021A604FF08C
:1009D800FF33184607F10807BD4680BD80B400AF55
:1009E8004FF001031846BD4680BC704780B487B0FD
:1009F80000AFF86087ED020A7960D7ED037AF8EE68
:100A0800E77A97ED027AC7EE277AC7ED047A4FF0B6
:100A180000037B6119E07B694FEA83037A68D31886
:100A28007A694FEA420207EE902AB8EEE77AD7EDE4
:100A3800047A27EE277AD7ED027A77EE677AC3ED44
:100A4800007A7B6903F101037B617A69FB689A424A
:100A5800E1DB07F11C07BD4680BC704780B487B056
:100A680000AFF86087ED020A79604FF000037B6100
:100A78000AE07B694FEA83037A68D318BA681A6078
:100A88007B6903F101037B617A69FB689A42F0DBB9
:100A980007F11C07BD4680BC704700BFB0B489B0E1
:100AA80000AFF860B96087ED010A3A60B96801F1F2
:100AB800FF337B61084602464FF000034FEAD260DD
:100AC8004FEA431505434FEA42144FF00003FB6118
:100AD8002FE0D7ED037AF8EEE77A97ED017AC7EEC3
:100AE800277AC7ED047A4FF00003BB6119E00B4683
:100AF800FA6902FB03F34FEA83033A68D218D7ED89
:100B0800077AB8EEE77AD7ED047A67EE277ABB69F9
:100B18004FEA8303D318C3ED007ABB6903F10103DD
:100B2800BB61BA69BB689A42E1DBFB6903F1010367
:100B3800FB61FA69FB689A42CBDB07F12407BD46E3
:100B4800B0BC704780B487B000AFF860B9607A6015
:100B58004FF000037B610FE07B694FEA83037A68FB
:100B6800D3187A694FEA8202B9688A1812681A603B
:100B78007B6903F101037B617A69FB689A42EBDBCD
:100B880007F11C07BD4680BC704700BF2DE9F00384
:100B980088B000AFF860B9607A603B60B96801F16D
:100BA800FF337B61084602464FF000034FEAD260EC
:100BB8004FEA431940EA09094FEA4218B86800F1B8
:100BC800FF333B61064632464FF000034FEAD266D8
:100BD8004FEA431535434FEA42144FF00003FB61D7
:100BE80029E04FF00003BB611DE00346FA6902FBF0
:100BF80003F34FEA83033A68D4180B46FA6902FBF9
:100C080003F34FEA83037A68D218BB694FEA830378
:100C1800D3181A68BB694FEA8303E3181A60BB69E3
:100C280003F10103BB61BA69BB689A42DDDBFB696A
:100C380003F10103FB61FA69FB689A42D1DB07F112
:100C48002007BD46BDE8F003704700BF80B483B0FD
:100C580000AF87ED010AC7ED000A97ED017ADFEDD5
:100C68000B7A27EE277AD7ED006ADFED097A66EE70
:100C7800A77A37EE277ADFED077AC7EE277AB0EE44
:100C8800670A07F10C07BD4680BC70470000104199
:100C980000007A4400407C4480B485B000AF87ED02
:100CA800030AC7ED020A87ED011A97ED037ADFED13
:100CB8000D7A27EE277AD7ED017A37EE677AD7EDE6
:100CC800026ADFED097A66EEA77A37EE677ADFED1A
:100CD800057AC7EE277AB0EE670A07F11407BD4612
:100CE80080BC70470000C8410000E04080B58CB06F
:100CF80000AF4FF001004FF0010109F00FFA4FF477
:100D080020433B624FF0020387F824304FF0000382
:100D180087F826304FF0030387F825304FF001039A
:100D280087F8273007F120034FF44060C4F202002F
:100D3800194608F07BFC4FF44060C4F202004FF003
:100D48000D014FF0020208F0FFFD4FF44060C4F2BD
:100D580002004FF00F014FF0020208F0F5FD4FF0CE
:100D680004004FF0010109F057FA4FF0F903FB6254
:100D78004FF0FF03BB62BB6ABB61FB6A9BB2BB82DD
:100D88004FF00003BB834FF00003FB8207F114030D
:100D98004FF40060C4F20000194609F00BFE4FF052
:100DA80060033B804FF001037B804FF00003BB6082
:100DB8004FF00003BB813B464FF40060C4F20000D3
:100DC80019460AF02BF84FF40060C4F200004FF007
:100DD80008010AF00DFB3B464FF40060C4F2000026
:100DE80019460AF03FF94FF40060C4F200004FF0D2
:100DF80008010AF039FB4FF40060C4F200004FF01C
:100E0800010109F06DFF07F13007BD4680BD00BF45
:100E180080B582B000AF4FF008004FF0010109F033
:100E28007DF94FF4A0433B604FF001033B714FF055
:100E38000003BB714FF003037B714FF00003FB719C
:100E48003B464FF48050C4F20200194608F0EEFB0E
:100E580007F10807BD4680BD80B584B000AFF860D3
:100E680087ED020AC7ED010A87ED001AFB6803F156
:100E78009C034FF006009FED640A1946FFF7EEFD4C
:100E880040F22403C2F20003D3ED007AFB6803F1B9
:100E9800A8034FF003004FF00601B0EE670A1A46A8
:100EA800FFF7FCFD40F22403C2F2000393ED007A41
:100EB800DFED567AC7EE277AFB6803F59C734FF08F
:100EC8000600B0EE670A1946FFF7C8FDFB6803F590
:100ED800B4734FF006009FED4E0A1946FFF786FDE2
:100EE800FB6803F5B472FB6803F5FC734FF006006A
:100EF80011461A46FFF726FEFB6803F59C72FB684D
:100F080003F5F0734FF0060011461A46FFF71AFE74
:100F1800FB6803F1A802FB6803F5CC734FF00300EC
:100F28004FF00601FFF732FEFB684DF20A72C3F676
:100F380023421A60FB68BA685A60FB687A689A604C
:100F4800FB683A68DA60FB68BA681A61FB687A6815
:100F58005A61FB683A689A61FB684FF00002DA61EF
:100F6800FB684FF000021A62FB684FF000025A62F9
:100F7800FB684FF000029A62FB684FF00002DA62E9
:100F8800FB684FF000029A64FB684FF00002DA64D5
:100F9800FB684FF000025A65FB684FF000029A6543
:100FA800FB684FF00002DA65FB684FF000021A6632
:100FB800FB684FF000021A67FB684FF000025A679F
:100FC800FB684FF000029A67FB684FF00002DA678F
:100FD800FB684FF00002C3F89820FB684FF000024E
:100FE800C3F89420FB684FF00002C4F2FA42C3F839
:100FF8003422FB684FF40042C4F23B62C3F8382243
:1010080007F11007BD4680BD000000000000C04089
:101018000000003F80B483B000AF78607B684FF079
:101028000002C3F810227B684FF00002C3F81422B4
:101038007B684FF00002C3F818227B684FF000026B
:10104800DA677B684FF000021A677B684FF000028E
:101058005A677B684FF00002C3F898207B684FF00E
:101068000002DA647B684FF000025A627B684FF036
:1010780000029A627B684FF00002DA627B684FF0E8
:1010880000029A657B684FF00002DA657B684FF0D2
:1010980000021A6607F10C07BD4680BC704700BF06
:1010A80080B582B000AF4FF001004FF0010109F0A8
:1010B80035F84FF00F033B604FF000033B714FF0E2
:1010C80003037B714FF00103FB713B464FF00000B7
:1010D800C4F20200194608F0A9FA07F10807BD464C
:1010E80080BD00BF80B586B000AF4FF480404FF0A0
:1010F800010109F0BBF84FF000004FF0000107F0C4
:10110800F7FE4FF00103BB604FF000033B734FF055
:1011180010037B734FF00103BB7307F108031846F4
:1011280008F092F84FF0010008F0B4F94FF0060308
:101138003B714FF003037B714FF00303BB714FF01A
:101148000103FB7107F10403184607F07BFF4FF01A
:1011580000004FF0010107F0CBFE4FF00203BB6027
:101168004FF000033B734FF010037B734FF0010304
:10117800BB7307F10803184608F066F84FF0020041
:1011880008F088F94FF007033B714FF003037B71B8
:101198004FF00303BB714FF00103FB7107F1040328
:1011A800184607F04FFF4FF000004FF0020107F01C
:1011B8009FFE4FF00403BB604FF000033B734FF0FA
:1011C80010037B734FF00103BB7307F10803184644
:1011D80008F03AF84FF0040008F05CF94FF0080303
:1011E8003B714FF003037B714FF00303BB714FF06A
:1011F8000103FB7107F10403184607F023FF4FF0C2
:1012080000004FF0030107F073FE4FF00803BB60C6
:101218004FF000033B734FF010037B734FF0010353
:10122800BB7307F10803184608F00EF84FF00800E2
:1012380008F030F94FF009033B714FF003037B715D
:101248004FF00303BB714FF00103FB7107F1040377
:10125800184607F0F7FE07F11807BD4680BD00BF26
:1012680090B583B002AFFFF741FDFFF7D1FDFFF75F
:1012780017FFFFF737FF03F0EBF944F2B060C2F253
:1012880001009FED710ADFED700A9FED701AFFF7FC
:10129800E3FD4BF20470C2F201009FED6B0ADFED33
:1012A8006A0A9FED6A1AFFF7D7FD47F61C20C2F2BB
:1012B80001009FED650ADFED640A9FED641AFFF7F0
:1012C800CBFD45F2AC40C2F201009FED5F0ADFEDB5
:1012D8005E0A9FED5E1AFFF7BFFD40F2EE209FED1C
:1012E8005B0A43F6F821C2F20101FFF7B7FB40F2AF
:1012F800EE209FED560A47F66041C2F20101FFF762
:10130800ADFB40F2EE209FED510A45F2F461C2F2C6
:101318000101FFF7A3FB40F2EE209FED4C0A4AF6CD
:101328004C31C2F20101FFF799FB40F2EE209FED2C
:10133800470A46F66461C2F20101FFF78FFB40F2EB
:10134800EE209FED420A44F6F401C2F20101FFF7D4
:1013580085FB40F2EE209FED3D0A4BF64811C2F2A4
:101368000101FFF77BFB40F2EE209FED380A46F2C1
:10137800AC21C2F20101FFF771FB40F2EE209FEDB4
:10138800330A49F2D431C2F20101FFF767FB40F298
:10139800EE209FED2E0A42F64071C2F20101FFF7DE
:1013A8005DFB40F2EE209FED290A4CF20851C2F293
:1013B8000101FFF753FB40F2EE209FED240A48F6A7
:1013C8001C01C2F20101FFF749FB40F2EE209FED3C
:1013D8001F0A49F68C71C2F20101FFF73FFB40F288
:1013E8001413C2F200034FF000021A6041F259438D
:1013F800C0F6000300934DF61060C0F600004FF0F1
:101408001E014FF001024FF0010307F049F80246B0
:1014180042F63C73C2F201031A6042F63C73C2F210
:1014280001031C6806F0BEF803464FF00002009264
:1014380020464FF000011A464FF0000307F068F805
:1014480007F10407BD4690BD0AD7233C0000000001
:1014580080B485B000AF40F22013C2F200031B78BD
:10146800002B00F0978040F22013C2F200031B7893
:10147800012B20D140F22813C2F200031A6840F66B
:101488005B539A4208DC40F22413C2F200031A6844
:1014980040F65C539A427DDD40F22013C2F200030D
:1014A8004FF005021A7040F21013C2F200034FF019
:1014B80001021A606EE040F22013C2F200031B78AA
:1014C800022B20D140F22813C2F200031A6840F61A
:1014D8005B539A4208DC40F22413C2F200031A68F4
:1014E80040F65B539A4255DD40F22013C2F20003E6
:1014F8004FF005021A7040F21013C2F200034FF0C9
:1015080002021A6046E040F22013C2F200031B7880
:10151800032B1CD140F22813C2F200031B68952B41
:1015280038DD40F22413C2F200031B68952B31DD2D
:1015380040F22013C2F200034FF000021A7040F28A
:101548001013C2F200034FF003021A6022E040F2C7
:101558002013C2F200031B78042B1BD140F228137E
:10156800C2F200031B68952B14DD40F22413C2F26B
:1015780000031B68952B0DDD40F22013C2F2000317
:101588004FF000021A7040F21013C2F200034FF03D
:1015980004021A6007F11407BD4680BC704700BFFB
:1015A80080B483B000AF78607B685A6E7B68DA6578
:1015B8007B689A6E7B681A667B68DA6E7B689A65C8
:1015C80007F10C07BD4680BC704700BF80B582B0EC
:1015D80000AF78607B68D3ED8D7AFDEEE77A40F254
:1015E8002003C2F20003C3ED007A40F22003C2F2E6
:1015F80000031A6840F2F3139A420EDC40F220030B
:10160800C2F200031A686FF4F9739A4205DB7B682B
:101618004FF00102C3F83C221FE040F22003C2F25F
:1016280000031B68B3F57A7F17DD40F22003C2F28E
:1016380000031B6813F57A7F0FDA7B684FF000020E
:10164800C3F83C2207F1040318469FED060ADFEDB4
:10165800050A9FED051AFFF7FFFB07F10807BD46CE
:1016680080BD00BF0AD7233C0000000080B400AF53
:1016780040F22413C2F200034FF000021A6040F255
:101688002813C2F200034FF000021A60BD4680BC66
:10169800704700BF80B400AF42F63873C2F201034E
:1016A8004FF000021A6045F2F063C2F201034FF0F6
:1016B80000021A60BD4680BC704700BF80B582B08A
:1016C80000AF0346FB71FB79662B49D140F2081342
:1016D800C2F200031B68012B00F0368140F2201390
:1016E800C2F200031B78002B40F02E8144F2B06058
:1016F800C2F20100FFF754FF4BF20470C2F201007E
:10170800FFF74EFF40F21013C2F200031B68012BD3
:101718000BD144F2B060C2F20100FFF757FF4BF261
:101728000470C2F20100FFF751FF40F21013C2F239
:1017380000031B68022B0BD147F61C20C2F20100E4
:10174800FFF744FF45F2AC40C2F20100FFF73EFF4D
:1017580040F22013C2F200034FF001021A70F3E0C6
:1017680040F20813C2F200031B68012B0AD0FB7970
:10177800732B07D140F22013C2F200034FF0050289
:101788001A70E1E040F20813C2F200031B68012B53
:1017980044D0FB79622B41D140F22013C2F20003FE
:1017A8001B78002B40F0D08047F61C20C2F20100C5
:1017B800FFF7F6FE45F2AC40C2F20100FFF7F0FE7B
:1017C80040F21013C2F200031B68012B0BD144F244
:1017D800B060C2F20100FFF7F9FE4BF20470C2F2EA
:1017E8000100FFF7F3FE40F21013C2F200031B687A
:1017F800022B0BD147F61C20C2F20100FFF7E6FED0
:1018080045F2AC40C2F20100FFF7E0FE40F22013BF
:10181800C2F200034FF002021A7095E040F208137A
:10182800C2F200031B68012B44D0FB796C2B41D119
:1018380040F22013C2F200031B78002B40F0848092
:1018480044F2B060C2F20100FFF7AAFE45F2AC40D4
:10185800C2F20100FFF7A4FE40F21013C2F2000327
:101868001B68012B0BD144F2B060C2F20100FFF7F4
:10187800ADFE4BF20470C2F20100FFF7A7FE40F282
:101888001013C2F200031B68022B0BD147F61C2071
:10189800C2F20100FFF79AFE45F2AC40C2F2010025
:1018A800FFF794FE40F22013C2F200034FF0030248
:1018B8001A7049E040F20813C2F200031B68012BBA
:1018C80042D0FB79722B3FD140F22013C2F20003C1
:1018D8001B78002B38D147F61C20C2F20100FFF715
:1018E8005FFE4BF20470C2F20100FFF759FE40F2AE
:1018F8001013C2F200031B68012B0BD144F2B06035
:10190800C2F20100FFF762FE4BF20470C2F201005E
:10191800FFF75CFE40F21013C2F200031B68022BB3
:101928000BD147F61C20C2F20100FFF74FFE45F22B
:10193800AC40C2F20100FFF749FE40F22013C2F2A8
:1019480000034FF004021A7007F10807BD4680BD76
:1019580080B582B000AF13460246FA710A46BA71E2
:101968007B71FB79002B26D1BB79A3F16403032B90
:1019780020D801A252F823F0911900089B190008F9
:10198800A9190008B31900087B791846FFF796FED5
:1019980011E07A7940F23003C2F200031A600AE0DB
:1019A8007B79184602F08AFE05E07B79184602F03A
:1019B800FDFE00E000BF07F10807BD4680BD00BF7F
:1019C80080B485B000AF87ED010A38604FF000039E
:1019D800FB604FF07E53BB604FF00003FB600BE0F1
:1019E80097ED027AD7ED017A67EE277AC7ED027A8A
:1019F800FB6803F10103FB60FA683B689A42EFDB7E
:101A0800BB6807EE903AB0EE670A07F11407BD46C7
:101A180080BC704780B485B000AF87ED010A7B6851
:101A2800FB60D7ED037AF5EEC07AF1EE10FA05D532
:101A3800D7ED037AF1EE677AC7ED037AFB6807EE14
:101A4800903AB0EE670A07F11407BD4680BC7047AC
:101A580080B588B000AF87ED010A4FF07E53FB6177
:101A68007B68BB614FF002037B614FF000033B6171
:101A78004FF00003FB6032E097ED077AD7ED067A66
:101A880077EE277AC7ED077A97ED067AD7ED017AD0
:101A980067EE277AC7ED067AD7ED057AF8EEE77A8A
:101AA80097ED067AC7EE277AC7ED067A7B6903F1C8
:101AB80001037B613B6903F101033B6197ED060A72
:101AC800FFF7A8FFB0EE407ADFED0C7A67EE277AD1
:101AD800FDEEE77AC7ED037AFB68092B03DD3B6966
:101AE800132BC9DD00E000BFFB6907EE903AB0EEAA
:101AF800670A07F12007BD4680BD00BF00007A4491
:101B080080B52DED028B90B000AFF86087ED020A2A
:101B180079603A6040F22013C2F200031B78002B70
:101B280000F0F4844FF00003FB634FF00003BB6345
:101B3800FB684FF000029A644FF00003FB63A7E0D4
:101B4800FB6893ED277AFA68FB6B03F12A034FEAE7
:101B58008303D318D3ED007A77EE677AB0EE670A7D
:101B68004FF00200FFF72CFFB0EE408AFB6893EDC0
:101B7800287AFA68FB6B03F130034FEA8303D31822
:101B8800D3ED007A77EE677AB0EE670A4FF002007D
:101B9800FFF716FFF0EE407A38EE278AFB6893EDE0
:101BA800297AFA68FB6B03F136034FEA8303D318EB
:101BB800D3ED007A77EE677AB0EE670A4FF002004D
:101BC800FFF7FEFEF0EE407A78EE277AFA68FB6BB4
:101BD80003F186034FEA8303D31803F10403C3ED2B
:101BE800007AFA68FB6B03F186034FEA8303D31884
:101BF80003F1040393ED007ADFEDCD7A67EE277ADF
:101C0800C7ED0D7AFA68FB6B03F14E034FEA8303C5
:101C1800D318D3ED007AB0EE670A4FF00200FFF751
:101C2800CFFEF0EE407A97ED0D7AC7EE277AC7ED32
:101C38000D7A97ED0D0AFFF70BFFF0EE407AFA6880
:101C4800FB6B03F10C034FEA8303D318C3ED007A4F
:101C5800FB6893ED127AFA68FB6B03F10C034FEA09
:101C68008303D318D3ED006AFA68FB6B03F15A03B8
:101C78004FEA8303D318D3ED007A66EEA77A77EE9E
:101C8800277AFB68C3ED127AFB6B03F10103FB6350
:101C9800FB6B052B7FF754AFFB6893ED137AFB685A
:101CA800D3ED127A77EE277AFB68C3ED137AD7ED76
:101CB800017AB8EEE77AFB68D3ED127A77EE677AA5
:101CC800FB68C3ED1E7AFB68D3F88C20FB68C3F869
:101CD8009020FB68D3F88820FB68C3F88C20FB6849
:101CE800D3F88420FB68C3F88820FB68D3F88020E9
:101CF800FB68C3F88420FB68D3ED1E7AB0EE670A50
:101D0800FFF788FEF0EE407AFB68C3ED207AFB68A7
:101D180093ED207AFB68D3ED217A37EE277AFB68BA
:101D2800D3ED227A37EE277AFB68D3ED237A37EEA4
:101D3800277AFB68D3ED247A37EE277ADFED7D7AB0
:101D4800C7EE277AFB68C3ED257A4FF00003FB63E3
:101D580050E0FB6893ED1E7AFA68FB6B03F10C0305
:101D68004FEA8303D318D3ED007A67EE277AC7EDDD
:101D78000C7AFB6893ED007AD7ED0C7A67EE277A38
:101D8800FA68FB6B03F160034FEA8303D318C3EDD2
:101D9800007AFA68FB6B03F15A034FEA8303D318FE
:101DA8001A68F968FB6B03F17E034FEA8303CB18CB
:101DB8001A60FA68FB6B03F17E034FEA8303D318BA
:101DC80093ED007AFA68FB6B03F160034FEA830333
:101DD800D318D3ED007A77EE277AFA68FB6B03F114
:101DE8005A034FEA8303D318C3ED007AFB6B03F160
:101DF8000103FB63FB6B052BABDD4FF00003FB63BB
:101E080089E0FB6893ED007AFB68D3ED1E7A67EEF4
:101E1800277AC7ED0B7AFA68FB6B03F15A034FEA8E
:101E28008303D318D3ED007A97ED0B7A67EE277A00
:101E3800C7ED0B7AFA68FB6B03F10C034FEA8303D7
:101E4800D318D3ED007A97ED0B7A67EE277AC7EDB2
:101E58000B7AFA68FB6B03F186034FEA8303D31806
:101E680003F10403D3ED007A97ED0B7A67EE277A36
:101E7800C7ED0B7AFA68FB6B03F14E034FEA830355
:101E8800D318D3ED007AB0EE670A4FF00300FFF7DE
:101E980097FDF0EE407A97ED0B7AC7EE277AC7EDFB
:101EA8000B7AFA68FB6B03F154034FEA8303D318E8
:101EB800FA6A1A60FA68FB6B03F14E034FEA830370
:101EC800D3181A68F968FB6B03F178034FEA8303A8
:101ED800CB181A60FA68FB6B03F178034FEA8303A7
:101EE800D31893ED007AFA68FB6B03F154034FEAB9
:101EF8008303D318D3ED007A77EE277AFA68FB6B61
:101F080003F14E034FEA8303D318C3ED007AFB6B4A
:101F180003F10103FB63FB6B052B7FF772AF4FF0F7
:101F28000003FB63DDE04FF00003BB63D1E000BFBB
:101F3800000000BF0000A040FB6893ED007AFB683A
:101F4800D3ED1E7A67EE277AC7ED0A7AFA68FB6B3B
:101F580003F15A034FEA8303D318D3ED007A97EDC0
:101F68000A7A67EE277AC7ED0A7AFA68FB6B03F1FB
:101F78000C034FEA8303D318D3ED007A97ED0A7A5E
:101F880067EE277AC7ED0A7AFA68BB6B03F1260376
:101F98004FEA8303D31803F1040393ED007AF96839
:101FA800BA6B13464FEA43039B184FEA4303FA6B95
:101FB8009B1803F12A034FEA8303CB18D3ED007A69
:101FC80077EE677A97ED0A7A67EE277AC7ED0A7A8D
:101FD800FA68FB6B03F14E034FEA8303D318D3ED82
:101FE800007AB0EE670A4FF00200FFF7E9FCF0EE66
:101FF800407A97ED0A7AC7EE277AC7ED0A7AF96828
:10200800BA6B13464FEA43039B184FEA4303FA6B34
:102018009B1803F13C034FEA8303CB18BA6A1A6092
:10202800F968BA6B13464FEA43039B184FEA430318
:10203800FA6B9B1803F12A034FEA8303CB1819683C
:10204800F868BA6B13464FEA43039B184FEA4303F9
:10205800FA6B9B1803F166034FEA8303C3181960F0
:10206800F968BA6B13464FEA43039B184FEA4303D8
:10207800FA6B9B1803F166034FEA8303CB1893EDC1
:10208800007AF968BA6B13464FEA43039B184FEA84
:102098004303FA6B9B1803F13C034FEA8303CB1805
:1020A800D3ED007A77EE277AF968BA6B13464FEAD0
:1020B80043039B184FEA4303FA6B9B1803F12A0367
:1020C8004FEA8303CB18C3ED007ABB6B03F101031E
:1020D800BB63BB6B022B7FF72FAFFB6B03F10103D5
:1020E800FB63FB6B052B7FF71EAFFB684FF000020D
:1020F800DA614FF00003FB6354E0FA68FB6B03F10D
:102108005A034FEA8303D31893ED007AFA68FB6BFE
:1021180003F10C034FEA8303D318D3ED007A67EE7B
:10212800277AC7ED097AFB68D3ED277AF1EE677A4B
:10213800C7ED087AFA68FB6B03F12A034FEA8303B9
:10214800D31893ED007AD7ED087A77EE277A97EDD2
:10215800097A67EE277AC7ED097AFA68FB6B03F10B
:102168004E034FEA8303D318D3ED007AB0EE670A23
:102178004FF00200FFF724FCF0EE407A97ED097A61
:10218800C7EE277AC7ED097AFB6893ED077AD7ED92
:10219800097A77EE277AFB68C3ED077AFB6B03F1C0
:1021A8000103FB63FB6B052BA7DDFB68DA69FB68A2
:1021B8001A62FB68D3ED0A7A97ED020AF0EE670A15
:1021C800FEF744FDF0EE407AFB68C3ED097AFB6840
:1021D80093ED097AD7ED017AF8EEE77A77EE677A28
:1021E800FB68C3ED1F7AFB6893ED8D8AFB68D3ED1E
:1021F8001F7AB0EE670AFFF70DFCF0EE407A78EE32
:10220800277AFB68C3ED8D7AFB689A6AFB68DA6205
:10221800FB685A6AFB689A62FB68D3F84032FA682E
:10222800D2ED097AFDEEE77A17EE902A9A18FB6844
:10223800C3F84022FB6893ED1F7AFB68D3ED1C7A44
:1022480077EE677AFB68C3ED847AFB68DA6FFB6820
:10225800C3F81422FB6893ED1F7AFB68D3ED1C7A50
:1022680077EEA77A37EE677AFB68D3ED1D7A77EEBB
:10227800277AFB68C3ED867AD7ED007AB8EEE77A5D
:10228800FB68D3ED137A37EE677AD7ED007AF8EE6C
:10229800E77AC7EE277AFDEEE77AC7ED077AFB699A
:1022A8004FF0640202FB03F3FB61FB69092B07DCB7
:1022B800FB68D3F8983003F10102FB68C3F8982053
:1022C800FB69092B00F3B5807B68012B40F3B180D3
:1022D800FB68D3F898301E2B40F3AB80FB6893ED76
:1022E800257ADFED8D7AB4EEE77AF1EE10FA40F157
:1022F800A080FB68D3F8983003F10102FB68C3F8AB
:102308009820FB6893ED007AFB68D3ED1F7A67EE9F
:10231800277AC7ED067AFB68D3ED087A97ED067A37
:1023280067EE277AC7ED067AFB68D3ED847A97EDD6
:10233800067A67EE277AC7ED067AFB6893ED007A8E
:10234800FB68D3ED1F7A67EE277AC7ED057AFB683D
:10235800D3ED087A97ED057A67EE277AC7ED057A07
:10236800FB68D3ED857A97ED057A67EE277AC7ED96
:10237800057AFB6893ED007AFB68D3ED1F7A67EE68
:10238800277AC7ED047AFB68D3ED087A97ED047ACB
:1023980067EE277AC7ED047AFB68D3ED867A97ED66
:1023A800047A67EE277AC7ED047AFB685A68FB68F7
:1023B8001A61FB689A68FB685A61FB68DA68FB680F
:1023C8009A61FB68D3F83C32002B32D140F22013DB
:1023D800C2F200031B78012B2BD1FB6893ED047A22
:1023E800D7ED067A77EE277AFB68C3ED017AFB68AA
:1023F80093ED057AD7ED057A77EE277AFB68C3ED7A
:10240800027AFB68D3ED017AF5EEC07AF1EE10FAA4
:1024180003D8FB684FF000025A60FB68D3ED027ADC
:10242800F5EEC07AF1EE10FA03D8FB684FF000021F
:102438009A60FB6893ED017AFB68D3ED847A27EE06
:10244800277AFB68D3ED026AFB68D3ED857A66EEDE
:10245800A77A37EE277AFB68D3ED036AFB68D3EDDA
:10246800867A66EEA77A77EE277AFB68C3ED157A47
:10247800FB6893ED177AFB68D3ED157A77EE277A28
:10248800FB68C3ED167AFB68D3ED167AF5EEC07AD1
:10249800F1EE10FA04D5FB684FF000029A650FE0E0
:1024A800FB6893ED167ADFED1D7AB4EEE77AF1EE6C
:1024B80010FA05DDFB684FF00002C4F2DC229A65D1
:1024C800FB68D3F8A020FB681A65FB68DA6DFB6827
:1024D8001A66FB689A6DFB68DA65FB681A6FFB6819
:1024E8005A67FB68DA6FFB681A67FB685A6DFB6806
:1024F800C3F89C20D7ED017AF8EEE77AFB68C3EDC4
:10250800287AFB681A6DFB68C3F8A42007F1400716
:10251800BD46BDEC028B80BD0000803F0000DC4260
:1025280080B584B000AFF86087ED020A79603A6040
:10253800FB68D3ED0A7A97ED020AF0EE670AFEF718
:1025480085FBF0EE407AFB68C3ED097AFB6893EDF2
:10255800097AD7ED017AF8EEE77A77EE677AFB68C1
:10256800C3ED1F7AFB689A6AFB68DA62FB685A6AED
:10257800FB689A62FB68D3F84032FA68D2ED097AB0
:10258800FDEEE77A17EE902A9A18FB68C3F8402206
:10259800FB6893ED1F7AFB68D3ED1C7A77EE677AB8
:1025A800FB68C3ED847AFB68DA6FFB68C3F8142212
:1025B800FB6893ED1F7AFB68D3ED1C7A77EEA77A58
:1025C80037EE677AFB68D3ED1D7A77EE277AFB68DA
:1025D800C3ED867AFB6893ED017AFB68D3ED847AC4
:1025E80027EE277AFB68D3ED026AFB68D3ED857A7C
:1025F80066EEA77A37EE277AFB68D3ED036AFB68A5
:10260800D3ED867A66EEA77A77EE277AFB68C3ED74
:10261800157AFB6893ED177AFB68D3ED157A77EE98
:10262800277AFB68C3ED167AFB68D3ED167AF5EEC8
:10263800C07AF1EE10FA04D5FB684FF000029A65F3
:102648000FE0FB6893ED167ADFED127AB4EEE77AC5
:10265800F1EE10FA05DDFB684FF00002C4F2DC224F
:102668009A65FB68D3F8A020FB681A65FB68DA6DE9
:10267800FB681A66FB689A6DFB68DA65FB681A6F77
:10268800FB685A67FB68DA6FFB681A6707F110077F
:10269800BD4680BD0000DC422DE9F04F93B00CAF81
:1026A800F86040F20813C2F200031B68012B40F0E7
:1026B80024824FF000037B6140F21413C2F200033E
:1026C8001B68A3F102037B61A0E04CF20853C2F23D
:1026D80001037A6953F822E047F66043C2F2010326
:1026E8007A6953F8226047F66043C2F201037A69B7
:1026F80053F822207B6903F1FF3147F66043C2F2A9
:10270800010353F82130D51A43F6F823C2F2010326
:102718007A6953F8224043F6F823C2F201037A6932
:1027280053F822207B6903F1FF3143F6F823C2F204
:10273800010353F82130D31ABB604AF64C33C2F276
:1027480001037A6953F822207A6045F2F463C2F2F1
:1027580001037A6953F822203A6046F66463C2F2AC
:1027680001037A6953F822B044F6F403C2F2010374
:102778007A6953F822A04BF64813C2F201037A692A
:1027880053F8229046F2AC23C2F201037A6953F857
:10279800228049F2D433C2F201037A6953F822C085
:1027A80042F64073C2F201037A6953F8220049F6EF
:1027B8008C73C2F201037A6953F8221048F61C029E
:1027C800C2F201027B6952F823300094BA68019280
:1027D8007A6802923A680392CDF810B0CDF814A046
:1027E800CDF81890CDF81C80CDF820C009900A913A
:1027F8000B934DF62460C0F60000714632462B4616
:102808000AF0A2FB7B6903F101037B6140F2141318
:10281800C2F200031B687A699A42FFF656AF44F287
:10282800B063C2F20103D3ED8D7AFDEEE77A17EEBD
:10283800902A44F2B063C2F20103D3ED8E7AFDEE22
:10284800E77A17EE903A4DF65460C0F6000011464C
:102858001A460AF079FB4BF20473C2F20103D3ED76
:102868008D7AFDEEE77A17EE902A4BF20473C2F2E6
:102878000103D3ED8E7AFDEEE77A17EE903A4DF626
:102888007C60C0F6000011461A460AF05DFB44F26F
:10289800B063C2F20103D3F83C32012B05D14DF6E7
:1028A800A460C0F600000AF067FB4BF20473C2F2A2
:1028B8000103D3F83C32012B05D14DF6AC60C0F6CC
:1028C80000000AF059FB40F22003C2F200031B6823
:1028D8004DF6B460C0F6000019460AF035FB40F228
:1028E800EE209FED880A43F6F821C2F20101FEF7B7
:1028F800B5F840F2EE209FED830A47F66041C2F238
:102908000101FEF7ABF840F2EE209FED7E0A45F29A
:10291800F461C2F20101FEF7A1F840F2EE209FED4A
:10292800790A4AF64C31C2F20101FEF797F840F2F3
:10293800EE209FED740A46F66461C2F20101FEF7CB
:102948008DF840F2EE209FED6F0A44F6F401C2F2D2
:102958000101FEF783F840F2EE209FED6A0A4BF67C
:102968004811C2F20101FEF779F840F2EE209FED1E
:10297800650A46F2AC21C2F20101FEF76FF840F297
:10298800EE209FED600A49F2D431C2F20101FEF750
:1029980065F840F2EE209FED5B0A42F64071C2F204
:1029A8000101FEF75BF840F2EE209FED560A4CF26B
:1029B8000851C2F20101FEF751F840F2EE209FEDF6
:1029C800510A49F68C71C2F20101FEF747F840F24C
:1029D800EE209FED4C0A48F61C01C2F20101FEF7F9
:1029E8003DF840F21013C2F200031B68012B37D1E7
:1029F80044F2B063C2F20103D3F8342244F2B06364
:102A0800C2F20103C3F8382244F2B063C2F20103F0
:102A18004FF00002C3F8342244F2B063C2F201035B
:102A28004FF00002C3F840224BF20473C2F20103D4
:102A3800D3F834224BF20473C2F20103C3F83822EC
:102A48004BF20473C2F201034FF00002C3F83422C0
:102A58004BF20473C2F201034FF00002C3F84022A4
:102A680040F21013C2F200031B68022B37D147F65D
:102A78001C23C2F20103D3F8342247F61C23C2F206
:102A88000103C3F8382247F61C23C2F201034FF0B2
:102A98000002C3F8342247F61C23C2F201034FF0A8
:102AA8000002C3F8402245F2AC43C2F20103D3F856
:102AB800342245F2AC43C2F20103C3F8382245F28E
:102AC800AC43C2F201034FF00002C3F8342245F2CE
:102AD800AC43C2F201034FF00002C3F8402240F2B7
:102AE8001413C2F200034FF000021A6040F20813F8
:102AF800C2F200034FF000021A604FF0140004F015
:102B0800DBF9CEE50000000080B400AF40F21413FA
:102B1800C2F200031A6840F2ED239A4200F32781BB
:102B280040F21413C2F200031A6840F22813C2F2EA
:102B38000003196843F6F823C2F2010343F8221090
:102B480040F21413C2F200031A6840F22413C2F2CE
:102B58000003196847F66043C2F2010343F82210E4
:102B680040F21413C2F200031A6844F2B063C2F2CE
:102B78000103D3ED137AFDEEE77A45F2F463C2F26E
:102B8800010317EE901A43F8221040F21413C2F210
:102B980000031A684BF20473C2F20103D3ED137AEF
:102BA800FDEEE77A4AF64C33C2F2010317EE901AAB
:102BB80043F8221040F21413C2F200031A684BF2D1
:102BC8000473C2F2010393ED017ADFED6A7A67EECE
:102BD800277AFDEEE77A46F66463C2F2010317EE40
:102BE800901A43F8221040F21413C2F200031A6834
:102BF80044F2B063C2F2010393ED017ADFED5D7A2E
:102C080067EE277AFDEEE77A44F6F403C2F2010391
:102C180017EE901A43F8221040F21413C2F2000380
:102C28001A684BF20473C2F2010393ED027ADFEDE6
:102C3800517A67EE277AFDEEE77A4BF64813C2F22F
:102C4800010317EE901A43F8221040F21413C2F24F
:102C580000031A6844F2B063C2F2010393ED027AEA
:102C6800DFED447A67EE277AFDEEE77A46F2AC2389
:102C7800C2F2010317EE901A43F8221040F214131F
:102C8800C2F200031A684BF20473C2F2010393ED17
:102C9800037ADFED397A67EE277AFDEEE77A42F6B6
:102CA8004073C2F2010317EE901A43F8221040F263
:102CB8001413C2F200031A6844F2B063C2F20103AB
:102CC80093ED037ADFED2C7A67EE277AFDEEE77A4B
:102CD80049F2D433C2F2010317EE901A43F82210D6
:102CE80040F21413C2F200031A6844F2B063C2F24D
:102CF8000103D3F840124CF20853C2F2010343F81F
:102D0800221040F21413C2F200031A684BF2047343
:102D1800C2F20103D3ED177AFDEEE77A49F68C7318
:102D2800C2F2010317EE901A43F8221040F214136E
:102D3800C2F200031A6844F2B063C2F20103D3ED91
:102D4800177AFDEEE77A48F61C03C2F2010317EE84
:102D5800901A43F8221040F21413C2F200031B68C1
:102D680003F1010240F21413C2F200031A60BD46D7
:102D780080BC704700401C460000C84280B483B045
:102D880000AF78607B68DA6D7B685A667B681A6E7C
:102D98007B689A667B689A6D7B68DA6607F10C0730
:102DA800BD4680BC704700BF80B594B000AF786066
:102DB8004FF0010000F07EFE4FF0020000F07AFEB6
:102DC8004FF0040000F076FE4FF0080000F072FEAD
:102DD80040F22013C2F200031B78012B70D100F0DF
:102DE800A9FD40F22403C2F200031A6840F21C1342
:102DF800C2F200031A6040F21C13C2F20003D3EDC2
:102E0800007A4AF64433C2F201031A6840F22813E2
:102E1800C2F200031B6844F2B060C2F20100B0EED7
:102E2800670A11461A46FEF76BFE40F21C13C2F2FF
:102E38000003D3ED007A4CF20453C2F201031A687E
:102E480040F22413C2F200031B684BF20470C2F272
:102E58000100B0EE670A11461A46FEF751FEFFF769
:102E680053FE4BF20473C2F201039B6DFB6444F200
:102E7800B063C2F201039B6DBB64D7ED137AFDEE1C
:102E8800E77A17EE902A40F21403C2F200031B6897
:102E9800D3181A46D7ED127AFDEEE77A17EE901A94
:102EA80040F21803C2F200031B68CB184DF6D46039
:102EB800C0F6000011461A4600F092FE00F023BD4D
:102EC80040F22013C2F200031B78022B77D100F0E6
:102ED80031FD4FF000037B6440F21C13C2F2000383
:102EE8004FF00002C4F220121A6040F21C13C2F222
:102EF8000003D3ED007A4AF64433C2F201031A689C
:102F080040F22813C2F200031B6847F61C20C2F2E5
:102F18000100B0EE670A11461A46FEF7F1FD40F2CD
:102F28001C13C2F20003D3ED007A4CF20453C2F230
:102F380001031A6840F22413C2F200031B6845F229
:102F4800AC40C2F20100B0EE670A11461A46FEF71D
:102F5800D7FD45F2AC43C2F20103DB6D3B6447F693
:102F68001C23C2F20103DB6DFB6340F21403C2F2BF
:102F78000003D3ED007AB8EEE77AD7ED107A77EE52
:102F8800677AFCEEE77A17EE902A40F21803C2F24D
:102F98000003D3ED007AB8EEE77AD7ED0F7A77EE33
:102FA800677AFCEEE77A17EE903A4DF6D460C0F6F1
:102FB800000011461A4600F013FE00F0A4BC40F2CF
:102FC8002013C2F200031B78032B40F0BF8040F2AD
:102FD8001C13C2F200034FF00002C4F220121A6060
:102FE80000F0A8FC40F22813C2F200031B68962BDD
:102FF80021DD40F21C13C2F200034FF000021A60F8
:1030080040F21C13C2F20003D3ED007A4AF64433AF
:10301800C2F201031A6840F22813C2F200031B68C7
:1030280044F2B060C2F20100B0EE670A11461A46D7
:10303800FFF776FA19E040F21C13C2F20003D3ED51
:10304800007A4AF64433C2F201031A6840F22813A0
:10305800C2F200031B6844F2B060C2F20100B0EE95
:10306800670A11461A46FFF75BFA40F22413C2F2C8
:1030780000031B68962B21DD40F21C13C2F20003EB
:103088004FF000021A6040F21C13C2F20003D3EDA5
:10309800007A4CF20453C2F201031A6840F2241376
:1030A800C2F200031B6845F2AC40C2F20100B0EE68
:1030B800670A11461A46FFF733FA19E040F21C1363
:1030C800C2F20003D3ED007A4CF20453C2F20103BA
:1030D8001A6840F22413C2F200031B6845F2AC40A0
:1030E800C2F20100B0EE670A11461A46FFF718FA55
:1030F80045F2AC43C2F201039B6DBB6344F2B0637B
:10310800C2F201039B6D7B6340F21403C2F2000319
:103118001B68D7ED0E7AFDEEE77A17EE902A9B1A18
:103128001A46D7ED0D7AFDEEE77A17EE901A40F2BF
:103138001803C2F200031B68CB184DF6DC60C0F61A
:10314800000011461A4600F04BFDDCE340F2201364
:10315800C2F200031B78042B40F0BF8040F21C131E
:10316800C2F200034FF00002C4F220121A6000F00D
:10317800E1FB40F22813C2F200031B68962B21DD05
:1031880040F21C13C2F200034FF000021A6040F232
:103198001C13C2F20003D3ED007A4AF64433C2F29C
:1031A80001031A6840F22813C2F200031B6847F6AD
:1031B8001C20C2F20100B0EE670A11461A46FFF75A
:1031C800AFF919E040F21C13C2F20003D3ED007A04
:1031D8004AF64433C2F201031A6840F22813C2F2D5
:1031E80000031B6847F61C20C2F20100B0EE670A14
:1031F80011461A46FFF794F940F22413C2F200036D
:103208001B68962B21DD40F21C13C2F200034FF01D
:1032180000021A6040F21C13C2F20003D3ED007AD8
:103228004CF20453C2F201031A6840F22413C2F2AA
:1032380000031B684BF20470C2F20100B0EE670A8B
:1032480011461A46FFF76CF919E040F21C13C2F256
:103258000003D3ED007A4CF20453C2F201031A685A
:1032680040F22413C2F200031B684BF20470C2F24E
:103278000100B0EE670A11461A46FFF751F94BF202
:103288000473C2F201039B6D3B6347F61C23C2F231
:1032980001039B6DFB62D7ED0C7AFDEEE77A17EE22
:1032A800902A40F21403C2F200031B68D3181A468E
:1032B80040F21803C2F200031B68D7ED0B7AFDEE4B
:1032C800E77A17EE901A5B1A4DF6E460C0F6000034
:1032D80011461A4600F084FC15E340F22013C2F2AE
:1032E80000031B78052B40F0EE8200F023FB40F230
:1032F8001013C2F200031B68012B40F0B9804CF296
:103308000453C2F201031B68022B77DD4AF64433EB
:10331800C2F201031B68022B70DD40F21C13C2F2DB
:1033280000034FF000021A6040F21C13C2F20003BF
:10333800D3ED007A4CF20453C2F201031A6840F24A
:103348002413C2F200031B684BF20470C2F201009E
:10335800B0EE670A11461A46FFF7E2F840F21C136E
:10336800C2F20003D3ED007A4AF64433C2F20103F5
:103378001A6840F22813C2F200031B6844F2B060D6
:10338800C2F20100B0EE670A11461A46FFF7C8F804
:103398004BF20473C2F201039B6DBB6244F2B0634B
:1033A800C2F201039B6D7B6240F21403C2F2000378
:1033B800D3ED007AB8EEE77AD7ED0A7A77EE277A76
:1033C800FCEEE77A17EE902A40F21803C2F20003E7
:1033D800D3ED007AB8EEE77AD7ED097A77EE277A57
:1033E800FCEEE77A17EE903A4DF6D460C0F600008E
:1033F80011461A4600F0F4FB00BF83E244F2B060C5
:10340800C2F20100FFF7BAFC4BF20470C2F20100ED
:10341800FFF7B4FC44F2B060C2F20100FDF7FAFD18
:103428004BF20470C2F20100FDF7F4FD40F22013E4
:10343800C2F200034FF000021A7040F21403C2F205
:1034480000031B681A4640F21803C2F200031B6807
:103458004DF6D460C0F6000011461A4600F0C0FBD5
:1034680040F20813C2F200034FF001021A604AE268
:1034780040F21013C2F200031B68022B40F0B9801F
:103488004CF20453C2F201031B68022B77DD4AF6A3
:103498004433C2F201031B68022B70DD40F21C1397
:1034A800C2F200034FF000021A6040F21C13C2F28D
:1034B8000003D3ED007A4CF20453C2F201031A68F8
:1034C80040F22413C2F200031B6845F2AC40C2F27A
:1034D8000100B0EE670A11461A46FFF721F840F2DC
:1034E8001C13C2F20003D3ED007A4AF64433C2F249
:1034F80001031A6840F22813C2F200031B6847F65A
:103508001C20C2F20100B0EE670A11461A46FFF706
:1035180007F845F2AC43C2F201039B6D3B6247F6E4
:103528001C23C2F201039B6DFB6140F21403C2F23B
:103538000003D3ED007AB8EEE77AD7ED087A77EE94
:10354800677AFCEEE77A17EE902A40F21803C2F287
:103558000003D3ED007AB8EEE77AD7ED077A77EE75
:10356800677AFCEEE77A17EE903A4DF6D460C0F62B
:10357800000011461A4600F033FB00BFC2E147F6CF
:103588001C20C2F20100FFF7F9FB45F2AC40C2F281
:103598000100FFF7F3FB47F61C20C2F20100FDF71C
:1035A80039FD45F2AC40C2F20100FDF733FD40F2AF
:1035B8002013C2F200034FF000021A7040F2140305
:1035C800C2F200031B681A4640F21803C2F2000355
:1035D8001B684DF6D460C0F6000011461A4600F08C
:1035E800FFFA40F20813C2F200034FF001021A601A
:1035F80089E140F21013C2F200031B68032B40F06C
:10360800AD804CF20453C2F201031B68022B77DD34
:103618004AF64433C2F201031B68022B70DD40F204
:103628001C13C2F200034FF000021A6040F21C1390
:10363800C2F20003D3ED007A4CF20453C2F2010344
:103648001A6840F22413C2F200031B6845F2AC402A
:10365800C2F20100B0EE670A11461A46FEF760FF93
:1036680040F21C13C2F20003D3ED007A4AF6443349
:10367800C2F201031A6840F22813C2F200031B6861
:1036880044F2B060C2F20100B0EE670A11461A4671
:10369800FEF746FF45F2AC43C2F201039B6DBB61E6
:1036A80044F2B063C2F201039B6D7B6140F21403E4
:1036B800C2F20003D3ED007AB8EEE77AD7ED067AC6
:1036C80077EE677AFCEEE77A17EE902A40F2180355
:1036D800C2F20003D3ED007AB8EEE77AD7ED057AA7
:1036E80077EE277AFCEEE77A17EE903A4DF6D4603B
:1036F800C0F6000011461A4600F072FA00BF01E158
:1037080044F2B060C2F20100FDF784FC45F2AC401F
:10371800C2F20100FDF77EFC40F22013C2F2000362
:103728004FF000021A7040F21403C2F200031B6843
:103738001A4640F21803C2F200031B684DF6D46023
:10374800C0F6000011461A4600F04AFA40F2081383
:10375800C2F200034FF001021A60D4E040F21013E5
:10376800C2F200031B68042B40F0CC804CF20453D7
:10377800C2F201031B68022B77DD4AF64433C2F21A
:1037880001031B68022B70DD40F21C13C2F2000318
:103798004FF000021A6040F21C13C2F20003D3ED8E
:1037A800007A4CF20453C2F201031A6840F224135F
:1037B800C2F200031B684BF20470C2F20100B0EEC3
:1037C800670A11461A46FEF7ABFE40F21C13C2F216
:1037D8000003D3ED007A4AF64433C2F201031A68B3
:1037E80040F22813C2F200031B6847F61C20C2F2FD
:1037F8000100B0EE670A11461A46FEF791FE4BF239
:103808000473C2F201039B6D3B6147F61C23C2F2AD
:1038180001039B6DFB6040F21403C2F20003D3ED79
:10382800007AB8EEE77AD7ED047A77EE277AFCEEDD
:10383800E77A17EE902A40F21803C2F20003D3ED9C
:10384800007AB8EEE77AD7ED037A77EE677AFCEE7E
:10385800E77A17EE903A4DF6D460C0F600001146AC
:103868001A4600F0BDF900BF4DE047F61C20C2F231
:103878000100FDF7CFFB4BF20470C2F20100FDF727
:10388800C9FB40F22013C2F200034FF000021A7085
:1038980040F21403C2F200031B681A4640F21803F0
:1038A800C2F200031B684DF6D460C0F60000114652
:1038B8001A4600F095F940F20813C2F200034FF0DF
:1038C80001021A601EE040F22013C2F200031B78C6
:1038D800002B18D140F21403C2F200031B681A46E9
:1038E80040F21803C2F200031B684DF6D460C0F61C
:1038F800000011461A4600F073F9FDF7CBFEFDF7FC
:10390800B5FE00E000BF4FF0010000F0E1F84FF015
:10391800020000F0DDF84FF0040000F0D9F84FF095
:10392800080000F0D5F84FF0140003F0C5FAFFF7CF
:103938003FBA00BF80B400AF45F2F063C2F20103A2
:103948001A684AF64433C2F201031A6042F6387321
:10395800C2F201031A684CF20453C2F201031A605E
:1039680042F63873C2F201034FF000021A6045F2C2
:10397800F063C2F201034FF000021A60BD4680BC3A
:10398800704700BF80B500AF4FF0010005F056FD4D
:103998000346002B1BD042F63873C2F201031B68A2
:1039A80003F1010242F63873C2F201031A6040F2D1
:1039B8002413C2F200031B6803F1010240F224132E
:1039C800C2F200031A604FF0010005F063FD80BDEC
:1039D80080B500AF4FF0020005F030FD0346002B24
:1039E8001BD045F2F063C2F201031B6803F1010228
:1039F80045F2F063C2F201031A6040F22813C2F2E2
:103A080000031B6803F1010240F22813C2F200030D
:103A18001A604FF0020005F03DFD80BD80B500AF93
:103A28004FF0040005F00AFD0346002B1BD042F6B8
:103A38003873C2F201031B6803F1010242F63873BE
:103A4800C2F201031A6040F22413C2F200031B6899
:103A580003F1010240F22413C2F200031A604FF08E
:103A6800040005F017FD80BD80B500AF4FF00800D9
:103A780005F0E4FC0346002B1BD045F2F063C2F2CC
:103A880001031B6803F1010245F2F063C2F201036E
:103A98001A6040F22813C2F200031B6803F1010206
:103AA80040F22813C2F200031A604FF0080005F034
:103AB800F1FC80BD80B485B000AF78607B68BB60E6
:103AC8004FF00003BB7307F11407BD4680BC704775
:103AD80080B485B000AF78607B68BB604FF00103AD
:103AE800BB7307F11407BD4680BC704780B582B030
:103AF80000AF786039604FF40060C4F20000796864
:103B080007F0B8FB4FF40060C4F20000396807F012
:103B1800CDFB07F10807BD4680BD00BF80B582B068
:103B280000AF786039604FF40060C4F200004FF0D5
:103B38007F0107F09FFB4FF40060C4F200004FF0D4
:103B48007F0107F0B3FB07F10807BD4680BD00BF42
:103B580080B582B000AF786039604FF40060C4F27D
:103B68000000796807F086FB4FF40060C4F200009B
:103B7800396807F09BFB07F10807BD4680BD00BF09
:103B880080B582B000AF786039604FF40060C4F24D
:103B98000000796807F06EFB4FF40060C4F2000083
:103BA800396807F083FB07F10807BD4680BD00BFF1
:103BB80080B582B000AF786039604FF40060C4F21D
:103BC8000000796807F056FB4FF40060C4F200006B
:103BD800396807F06BFB07F10807BD4680BD00BFD9
:103BE80090B587B000AFF860B9607A604FF0000315
:103BF8007B613CE040F23402C2F2000279690B4674
:103C08004FEA43035B184FEA8303D3181C6840F25A
:103C18003402C2F2000279690B464FEA43035B188B
:103C28004FEA8303D3181B68184600F0A1FA03462D
:103C3800F86821461A4600F0D9FA0346002B12D13B
:103C480040F23402C2F2000279690B464FEA43039C
:103C58005B184FEA8303D31803F108031B68B8689D
:103C68007968984706E07B6903F101037B617B690A
:103C7800042BBFD907F11C07BD4690BD80B58AB09B
:103C880000AF78604FF480204FF0010106F0C4FACD
:103C98004FF002004FF0010106F040FA4FF4406384
:103CA8003B624FF0020387F824304FF0020387F895
:103CB80025304FF0000387F826304FF0010387F8CE
:103CC800273007F120034FF48060C4F20200194640
:103CD80005F0ACFC4FF48060C4F202004FF00A011A
:103CE8004FF0070205F030FE4FF48060C4F2020086
:103CF8004FF00B014FF0070205F026FE7B683B6191
:103D08004FF00003BB824FF00003FB824FF000032B
:103D18003B834FF00003BB834FF00C037B8307F119
:103D280010034FF49040C4F20000194608F060FCFC
:103D38004FF49040C4F2000040F225514FF00102C8
:103D480008F0BCFF4FF027033B734FF000037B7371
:103D58004FF00003BB734FF00103FB7307F10C0333
:103D6800184605F06FF94FF49040C4F200004FF088
:103D7800010108F079FD07F12807BD4680BD00BFA5
:103D880080B500AF4FF49040C4F2000040F22551D6
:103D980009F018F80346002B00F08F804FF4904389
:103DA800C4F200039B889BB2DAB242F6F863C2F20F
:103DB80001031A7040F23913C2F200031B78312B49
:103DC8006DD840F23913C2F200031B781A4642F646
:103DD800F863C2F20103197842F60473C2F20103D0
:103DE800995440F23913C2F200031B78012B48D9C9
:103DF80040F23913C2F200031B78A3F1020242F623
:103E08000473C2F201039B5CDBB2652B2BD140F239
:103E18003913C2F200031B7803F1FF3242F6047330
:103E2800C2F201039B5CDBB26E2B1CD140F239134A
:103E3800C2F200031B781A4642F60473C2F2010369
:103E48009B5CDBB2642B0ED140F23813C2F2000344
:103E58004FF001021A7040F23913C2F200034FF01A
:103E680000021A7029E040F23913C2F200031B78ED
:103E780003F10103DAB240F23913C2F200031A70F7
:103E88001BE040F23913C2F200031B7803F101036F
:103E9800DAB240F23913C2F200031A700DE040F2B0
:103EA8003813C2F200034FF000021A7040F23913BF
:103EB800C2F200034FF000021A7080BD80B582B0D4
:103EC80000AF7860396014E000BF7B681B889BB244
:103ED80003F04003002BF8D03B681B78DBB278680E
:103EE800194608F041FD3B681B783B6803F1010364
:103EF8003B603B681B78DBB2002BE5D107F1080774
:103F0800BD4680BD80B489B000AFF860B9607A6002
:103F1800FB68FB61BB68DBB2BB600BE0BB68DAB275
:103F2800FB691A70FB6903F10103FB617B6803F10C
:103F3800FF337B60FB6903F00403002B02D07B682E
:103F4800002BEBD17B68002B2BD0BA6813464FEAC5
:103F580003239B184FEA03429B187B61FB69BB61F3
:103F68000AE0BB697A691A607B68A3F104037B6085
:103F7800BB6903F10403BB617B68032BF1D8BB6900
:103F8800FB610BE0BB68DAB2FB691A707B6803F16E
:103F9800FF337B60FB6903F10103FB617B68002B46
:103FA800F0D1FB68184607F12407BD4680BC70476E
:103FB80080B48BB000AFF860B9607A60FB687B6151
:103FC800FB687B62BB683B627B6803F00303022BE0
:103FD80010D0032B02D0012B18D023E03B6A1A78AB
:103FE8007B6A1A707B6A03F101037B623B6A03F107
:103FF80001033B623B6A1A787B6A1A707B6A03F199
:1040080001037B623B6A03F101033B623B6A1A7856
:104018007B6A1A707B6A03F101037B623B6A03F1D6
:1040280001033B627B6AFB613B6ABB617B684FEAC9
:1040380093037B600BE0BB691A68FB691A60FB6934
:1040480003F10403FB61BB6903F10403BB617B68F3
:10405800002B0CBF00230123DBB27A6802F1FF3288
:104068007A60002BE7D17B69184607F12C07BD461B
:1040780080BC704780B483B000AF7860396003E0DB
:104088007B6803F101037B607B681B78002B05D0FC
:104098007B681B781A463B689A42F1D17B681B788B
:1040A8001A463B689A4201D17B6801E04FF0000351
:1040B800184607F10C07BD4680BC704780B485B030
:1040C80000AF786039603B68FB607B68BB6000BF0D
:1040D800FB681A78BB681A70BB681B78002B0CBF8A
:1040E80000230123DBB2BA6802F10102BA60FA6860
:1040F80002F10102FA60002BEAD17B68184607F149
:104108001407BD4680BC704780B487B000AFF86024
:10411800B9607A60BB687B61FB683B6100BF7B6804
:10412800002B0CBF00230123DBB27A6802F1FF32B7
:104138007A60002B14D07B691A783B691A703B6946
:104148001B78002B0CBF00230123DBB23A6902F174
:1041580001023A617A6902F101027A61002BDED12B
:10416800FB68184607F11C07BD4680BC704700BFB6
:1041780080B485B000AF78604FF00003FB6003E0C7
:10418800FB6803F10103FB60FB687A68D3181B78AE
:10419800002BF5D1FB68184607F11407BD4680BC13
:1041A800704700BF80B483B000AF7860396007E023
:1041B8007B6803F101037B603B6803F101033B600B
:1041C8007B681B78002B05D07B681A783B681B78C6
:1041D8009A42EDD07B681B781A463B681B78D31A45
:1041E800184607F10C07BD4680BC704780B487B0FD
:1041F80000AFF860B9607A604FF000037B6118E0A7
:104208007B69FA68D3181A787B69B968CB181B7868
:104218009A420AD07B69FA68D3181B781A467B69D8
:10422800B968CB181B78D31A09E07B6903F101033D
:104238007B617A697B689A42E2D34FF000031846A3
:1042480007F11C07BD4680BC704700BF80B483B02F
:1042580000AF7860396003E07B6803F101037B609D
:104268007B681B78002BF7D100BF3B681A787B6806
:104278001A707B681B78002B0CBF00230123DBB26C
:104288007A6802F101027A603A6802F101023A6042
:10429800002BEAD17B68184607F10C07BD4680BCA5
:1042A800704700BF80B483B000AF87ED010AD7ED37
:1042B800017AF5EEC07AF1EE10FA08DD97ED017A91
:1042C800DFED0B7A77EE277AFDEEE77A07E097EDD8
:1042D800017ADFED077A77EE677AFDEEE77A17EE77
:1042E800903A184607F10C07BD4680BC704700BFDE
:1042F8000000003F80B584B000AF786040F238130A
:10430800C2F200031B78002B38D042F60473C2F2C5
:104318000103BB60BB681B78632B14D1BB685B7857
:104328006D2B10D1BB689B78642B0CD1BB68DB78F4
:104338001946BB681B791A46BB685B790846114663
:104348001A46FDF705FB40F23813C2F200034FF09E
:1043580000021A704FF00003FB600CE042F6047391
:10436800C2F20103FA689B184FF000021A70FB684A
:1043780003F10103FB60FB68312BEFDD4FF06400B4
:1043880002F09AFDBAE700BF80B598B000AF786038
:104398004FF00003FB654FF00003BB654FF00003CF
:1043A80087F857304FF0000387F856304DF66C7396
:1043B800C0F60003FB604FF0C8033B7407F15803D5
:1043C8007B614DF67C73C0F60003BB614FF0C903F7
:1043D8003B7707F1580303F101033B624DF68C73F9
:1043E800C0F600037B624FF0CA0387F8283007F154
:1043F800580303F10203FB624DF69C73C0F60003F9
:104408003B634FF0CB0387F8343007F1580303F1CF
:104418000303BB634DF6AC73C0F60003FB634FF0B8
:10442800CE0387F8403007F157037B644DF6BC7321
:10443800C0F60003BB644FF0CF0387F84C3007F198
:1044480056033B6501F0EAF90346DBB287F85830BA
:1044580001F00CFA0346DBB287F8593001F02EFA66
:104468000346DBB287F85A3001F050FA0346DBB254
:1044780087F85B304FF47A7002F01EFDE2E700BF68
:1044880080B400AF40F27003C2F200031B68072B30
:1044980004D04DF6CC73C0F6000301E04FF00003E2
:1044A8001846BD4680BC704780B400AF40F2740324
:1044B800C2F200031B68052B04D04DF6DC73C0F66E
:1044C800000301E04FF000031846BD4680BC70476A
:1044D80080B582B000AFFFF7D3FF786040F23C139D
:1044E800C2F200031B6803F1010240F23C13C2F25E
:1044F80000031A607B68002B01D07B6801E04FF055
:104508000003184607F10807BD4680BD80B582B094
:1045180000AF4DF6EC70C0F6000008F02DFDFFF777
:10452800D7FF786040F23C13C2F200031B684EF2DA
:104538001C00C0F60000194608F006FD7B68002B39
:1045480007D04EF22C00C0F60000796808F0FCFC99
:1045580005E04EF23400C0F6000008F00DFD7B685F
:10456800002B0CBF00230123DBB2184607F1080714
:10457800BD4680BD80B582B000AF4FF008004FF057
:10458800010105F0CBFD4FF0D8033B604FF000036D
:104598003B714FF002037B714FF00203FB713B4606
:1045A8004FF44060C4F20200194605F03FF807F1E5
:1045B8000807BD4680BD00BF80B582B000AF4FF090
:1045C80010004FF0010105F0A9FD4FF00F033B600B
:1045D8004FF001033B714FF00003BB714FF0030331
:1045E8007B714FF00003FB713B464FF48050C4F2DF
:1045F8000200194605F01AF84FF48050C4F2020080
:104608004FF001014FF0000205F066F94FF48050B9
:10461800C4F202004FF002014FF0000205F05CF90D
:104628004FF48050C4F202004FF004014FF0000232
:1046380005F052F94FF48050C4F202004FF008011F
:104648004FF0000205F048F907F10807BD4680BDA4
:1046580090B583B002AFFFF7AFFFFFF78BFF44F6CB
:10466800A503C0F6000300934EF26000C0F60000F8
:104678004FF032014FF001024FF0030303F010FF37
:1046880002464DF2C003C2F201031A604DF2C003A4
:10469800C2F201031C6802F085FF03464FF00002D6
:1046A800009220464FF000011A464FF0000303F035
:1046B8002FFF07F10407BD4690BD00BF80B582B04B
:1046C80000AF78607B68002B1BD14FF48050C4F298
:1046D80002004FF001014FF0000205F0FDF84FF421
:1046E8008050C4F202004FF002014FF0000205F0C2
:1046F800F3F840F24013C2F200034FF000021A70C0
:1047080050E07B68012B25D100F0DCF90346012B32
:1047180020D000F0D7F90346032B1BD04FF480506C
:10472800C4F202004FF001014FF0010205F0D4F885
:104738004FF48050C4F202004FF002014FF0000223
:1047480005F0CAF840F24013C2F200034FF001022C
:104758001A7027E07B68022B24D100F0B3F90346D6
:10476800022B1FD000F0AEF90346032B1AD04FF4EA
:104778008050C4F202004FF001014FF0000205F032
:10478800ABF84FF48050C4F202004FF002014FF032
:10479800010205F0A1F840F24013C2F200034FF005
:1047A80002021A7007F10807BD4680BD80B582B0C5
:1047B80000AF78607B68002B1BD14FF48050C4F2A7
:1047C80002004FF004014FF0000205F085F84FF4A5
:1047D8008050C4F202004FF008014FF0000205F0CB
:1047E8007BF840F24113C2F200034FF000021A7046
:1047F80050E07B68012B25D100F09CF90346012B82
:1048080020D000F097F90346032B1BD04FF48050BB
:10481800C4F202004FF004014FF0010205F05CF809
:104828004FF48050C4F202004FF008014FF000022C
:1048380005F052F840F24113C2F200034FF00102B2
:104848001A7027E07B68022B24D100F073F9034625
:10485800022B1FD000F06EF90346032B1AD04FF439
:104868008050C4F202004FF004014FF0000205F03E
:1048780033F84FF48050C4F202004FF008014FF0B3
:10488800010205F029F840F24113C2F200034FF08B
:1048980002021A7007F10807BD4680BD80B500AF57
:1048A80040F24013C2F200031B78012B04D0022B04
:1048B8003DD0002B77D075E040F24413C2F20003DC
:1048C8001B6803F1010240F24413C2F200031A60AC
:1048D80000F0F8F80346012B04D000F0F3F8034683
:1048E800032B0AD14FF00000FFF7E8FE40F2401317
:1048F800C2F200034FF000021A7040F24413C2F2F1
:1049080000031B68132B50DD4FF00000FFF7D6FEA5
:1049180040F24013C2F200034FF000021A7040F256
:104928004413C2F200034FF000021A603DE040F267
:104938004813C2F200031B6803F1010240F2481356
:10494800C2F200031A6000F0BDF80346022B04D03F
:1049580000F0B8F80346032B0AD14FF00000FFF728
:10496800ADFE40F24013C2F200034FF000021A708D
:1049780040F24813C2F200031B68132B17DD4FF0F7
:104988000000FFF79BFE40F24013C2F200034FF015
:1049980000021A7040F24813C2F200034FF00002FE
:1049A8001A6004E004E000BF02E000BF00E000BFBE
:1049B80040F24113C2F200031B78012B04D0022BF2
:1049C8003DD0002B78D075E040F24C13C2F20003C2
:1049D8001B6803F1010240F24C13C2F200031A6093
:1049E80000F0A8F80346012B04D000F0A3F8034612
:1049F800032B0AD14FF00000FFF7D8FE40F2411315
:104A0800C2F200034FF000021A7040F24C13C2F2D7
:104A180000031B68132B51DD4FF00000FFF7C6FEA3
:104A280040F24113C2F200034FF000021A7040F244
:104A38004C13C2F200034FF000021A603EE040F24D
:104A48005013C2F200031B6803F1010240F2501335
:104A5800C2F200031A6000F06DF80346022B04D07E
:104A680000F068F80346032B0AD14FF00000FFF767
:104A78009DFE40F24113C2F200034FF000021A708B
:104A880040F25013C2F200031B68132B18DD4FF0DD
:104A98000000FFF78BFE40F24113C2F200034FF013
:104AA80000021A7040F25013C2F200034FF00002E5
:104AB8001A6005E000BF04E000BF02E000BF00E0AC
:104AC80000BF80BD80B500AF4FF44060C4F2020063
:104AD8004FF0080104F08CFE0346002B0CBF0023A6
:104AE8000123DBB21A4640F25813C2F200031A60DF
:104AF8004FF44060C4F202004FF0100104F078FE59
:104B08000346002B02D04FF0020201E04FF00002F2
:104B180040F25813C2F200031B681A4340F25813BC
:104B2800C2F200031A6040F25813C2F200031B6875
:104B3800184680BD80B500AF4FF44060C4F2020053
:104B48004FF0800104F054FE0346002B0CBF0023F5
:104B58000123DBB21A4640F25413C2F200031A6072
:104B68004FF44060C4F202004FF0400104F040FEF0
:104B78000346002B02D04FF0020201E04FF0000282
:104B880040F25413C2F200031B681A4340F2541354
:104B9800C2F200031A6040F25413C2F200031B6809
:104BA800184680BD80B483B000AF78607B6842F659
:104BB800E06202FB03F37B6000E000BF7B68002B30
:104BC8000CBF00230123DBB27A6802F1FF327A605E
:104BD800002BF2D107F10C07BD4680BC704700BF1F
:104BE80080B483B000AF78607A6813464FEA430315
:104BF8009B184FEA83037B6000E000BF7B68002BB3
:104C08000CBF00230123DBB27A6802F1FF327A601D
:104C1800002BF2D107F10C07BD4680BC704700BFDE
:104C280080B500AF40F2A613C2F200031B78002B38
:104C38000AD14FF00000C4F202004FF010014FF00B
:104C4800010204F049FE34E040F2A613C2F2000368
:104C58001B78012B0AD14FF00000C4F202004FF07C
:104C680020014FF0010204F037FE22E040F2A613C3
:104C7800C2F200031B78022B0AD14FF40060C4F281
:104C880002004FF010014FF0010204F025FE10E081
:104C980040F2A613C2F200031B78032B09D14FF48C
:104CA8000060C4F202004FF020014FF0010204F04E
:104CB80013FE4FF00A00FFF793FF40F2A613C2F26B
:104CC80000031B78002B0AD14FF00000C4F2020049
:104CD8004FF010014FF0000204F0FEFD34E040F206
:104CE800A613C2F200031B78012B0AD14FF0000073
:104CF800C4F202004FF020014FF0000204F0ECFD76
:104D080022E040F2A613C2F200031B78022B0AD15C
:104D18004FF40060C4F202004FF010014FF000029F
:104D280004F0DAFD10E040F2A613C2F200031B788B
:104D3800032B09D14FF40060C4F202004FF02001A8
:104D48004FF0000204F0C8FD80BD00BF80B500AF81
:104D5800FFF766FF40F2A613C2F200031B7803F1C7
:104D68000103DAB240F2A613C2F200031A7040F24D
:104D7800A613C2F200031B7803F00303DAB240F271
:104D8800A613C2F200031A7080BD00BF80B500AF41
:104D98004FF001004FF0010105F0C0F94FF002009B
:104DA8004FF0010105F0BAF94FF004004FF001018E
:104DB80005F0B4F94FF002004FF0010105F02CFAAC
:104DC80080BD00BF90B583B002AFFFF7DFFF00F0F2
:104DD80031F800F0A7F944F65553C0F600030093E4
:104DE8004EF28400C0F600004FF01E014FF00102A1
:104DF8004FF0010303F054FB024640F27C13C2F269
:104E080000031A6040F27C13C2F200031C6802F02F
:104E1800C9FB03464FF00002009220464FF0000104
:104E28001A464FF0000303F073FB07F10407BD4671
:104E380090BD00BF80B584B000AF4FF0C0037B6069
:104E48004FF002033B724FF000037B724FF00203F6
:104E5800FB7207F104034FF00000C4F20200194688
:104E680004F0E4FB4FF003037B604FF002033B7256
:104E78004FF000037B724FF00203FB7207F104034B
:104E88004FF48060C4F20200194604F0CFFB4FF0E3
:104E98000000C4F202004FF006014FF0020204F0D5
:104EA80053FD4FF00000C4F202004FF007014FF02D
:104EB800020204F049FD4FF48060C4F202004FF092
:104EC80000014FF0020204F03FFD4FF48060C4F28D
:104ED80002004FF001014FF0020204F035FD4FF4DB
:104EE8008060C4F200004FF053014FF0010205F05A
:104EF800F9FD4FF01D033B734FF003037B734FF035
:104F08000303BB734FF00103FB7307F10C0318464F
:104F180004F098F84DF2C403C2F201034FF0000206
:104F28001A804DF2C403C2F201034FF000025A8006
:104F38004DF2C403C2F201034FF001029A804DF210
:104F4800C403C2F201034FF00002DA804DF2C40339
:104F5800C2F201034FF000021A814FF48060C4F2DC
:104F680000004DF2C401C2F2010106F0C5FC4DF289
:104F7800C403C2F201034FF004021A804DF2C403C5
:104F8800C2F201034FF000025A804DF2C403C2F28C
:104F980001034FF001029A804DF2C403C2F20103EB
:104FA8004FF00002DA804DF2C403C2F201034FF061
:104FB80000021A814FF48060C4F200004DF2C4016F
:104FC800C2F2010106F098FC4DF2C403C2F20103DB
:104FD8004FF008021A804DF2C403C2F201034FF0E9
:104FE80000025A804DF2C403C2F201034FF00102DD
:104FF8009A804DF2C403C2F201034FF00002DA8036
:105008004DF2C403C2F201034FF000021A814FF4BB
:105018008060C4F200004DF2C401C2F2010106F042
:105028006BFC4DF2C403C2F201034FF00C021A806C
:105038004DF2C403C2F201034FF000025A804DF250
:10504800C403C2F201034FF001029A804DF2C40377
:10505800C2F201034FF00002DA804DF2C403C2F23B
:1050680001034FF000021A814FF48060C4F200007F
:105078004DF2C401C2F2010106F03EFC4FF480601B
:10508800C4F200004FF0010105F02AFE4FF48060E1
:10509800C4F200004FF0020106F0F0FE4FF4806009
:1050A800C4F200004FF0040106F0E8FE4FF48060FF
:1050B800C4F200004FF0080106F0E0FE4FF48060F3
:1050C800C4F200004FF0100106F0D8FE4FF48060E3
:1050D800C4F200004FF002014FF0010206F03AFE60
:1050E8004FF48060C4F200004FF004014FF0010259
:1050F80006F030FE4FF48060C4F200004FF0080163
:105108004FF0010206F026FE4FF48060C4F2000062
:105118004FF010014FF0010206F01CFE07F11007D6
:10512800BD4680BD80B582B000AF4FF030033B6014
:105138004FF001033B714FF00003BB714FF00303C5
:105148007B714FF00003FB713B464FF00000C4F247
:105158000200194604F06AFA4FF030033B604FF042
:1051680001033B714FF00003BB714FF003037B71E8
:105178004FF00003FB713B464FF40060C4F202009D
:10518800194604F053FA4FF00000C4F202004FF041
:1051980010014FF0000204F09FFB4FF00000C4F232
:1051A80002004FF020014FF0000204F095FB4FF48D
:1051B8000060C4F202004FF010014FF0000204F04A
:1051C8008BFB4FF40060C4F202004FF020014FF057
:1051D800000204F081FB07F10807BD4680BD00BF4F
:1051E80080B500AF4FF48060C4F200004FF00201B8
:1051F80006F014FE0346012B40F0BB8040F29013EA
:10520800C2F200031B78002B2BD14DF2C403C2F26B
:1052180001034FF000021A804DF2C403C2F20103E9
:105228004FF002025A804FF48060C4F200004DF241
:10523800C401C2F2010106F05FFB4FF48060C4F2C2
:10524800000006F02DFC024640F28013C2F2000373
:105258001A6040F29013C2F200034FF001021A7074
:105268007EE040F29013C2F200031B78012B77D145
:105278004DF2C403C2F201034FF000021A804DF24E
:10528800C403C2F201034FF000025A804FF4806059
:10529800C4F200004DF2C401C2F2010106F02CFB79
:1052A8004FF48060C4F2000006F0FAFB024640F2B8
:1052B8008413C2F200031A6040F25C13C2F20003C6
:1052C8005A6840F25C13C2F200031A6040F2841379
:1052D800C2F200031A6840F28013C2F200031B688E
:1052E8009A4210D940F28413C2F200031A6840F2BD
:1052F8008013C2F200031B68D21A40F25C13C2F298
:1053080000035A6013E040F28413C2F200031A68E3
:1053180040F28013C2F200031B68D31A03F57F42E0
:1053280002F1FF0240F25C13C2F200035A6040F23D
:105338005C13C2F200035A684CF60933C8F63D53B1
:10534800A3FB02134FEA531240F25C13C2F20003AC
:105358005A6040F29013C2F200034FF000021A7034
:105368004FF48060C4F200004FF0020106F086FDA1
:1053780053E24FF48060C4F200004FF0040106F0DD
:105388004DFD0346012B40F0BB8040F29113C2F261
:1053980000031B78002B2BD14DF2C403C2F201038A
:1053A8004FF004021A804DF2C403C2F201034FF019
:1053B80002025A804FF48060C4F200004DF2C4012A
:1053C800C2F2010106F098FA4FF48060C4F20000BE
:1053D80006F072FB024640F28813C2F200031A601C
:1053E80040F29113C2F200034FF001021A707EE0FE
:1053F80040F29113C2F200031B78012B77D14DF2D2
:10540800C403C2F201034FF004021A804DF2C40330
:10541800C2F201034FF000025A804FF48060C4F2D8
:1054280000004DF2C401C2F2010106F065FA4FF422
:105438008060C4F2000006F03FFB024640F28C1385
:10544800C2F200031A6040F26413C2F200035A6801
:1054580040F26413C2F200031A6040F28C13C2F2E5
:1054680000031A6840F28813C2F200031B689A42CC
:1054780010D940F28C13C2F200031A6840F2881364
:10548800C2F200031B68D21A40F26413C2F200038E
:105498005A6013E040F28C13C2F200031A6840F21B
:1054A8008813C2F200031B68D31A03F57F4202F186
:1054B800FF0240F26413C2F200035A6040F2641320
:1054C800C2F200035A684CF60933C8F63D53A3FBF1
:1054D80002134FEA531240F26413C2F200035A60F7
:1054E80040F29113C2F200034FF000021A704FF419
:1054F8008060C4F200004FF0040106F0BFFC8CE1AC
:105508004FF48060C4F200004FF0080106F086FCFA
:105518000346012B40F0BB8040F2A413C2F2000303
:105528001B78002B2BD14DF2C403C2F201034FF0BC
:1055380008021A804DF2C403C2F201034FF00202BE
:105548005A804FF48060C4F200004DF2C401C2F2E8
:10555800010106F0D1F94FF48060C4F2000006F0B2
:10556800B7FA024640F29413C2F200031A6040F2FE
:10557800A413C2F200034FF001021A707EE040F259
:10558800A413C2F200031B78012B77D14DF2C40398
:10559800C2F201034FF008021A804DF2C403C2F2AE
:1055A80001034FF000025A804FF48060C4F20000FB
:1055B8004DF2C401C2F2010106F09EF94FF4806079
:1055C800C4F2000006F084FA024640F29813C2F2D0
:1055D80000031A6040F26C13C2F200035A6840F2EA
:1055E8006C13C2F200031A6040F29813C2F200036F
:1055F8001A6840F29413C2F200031B689A4210D949
:1056080040F29813C2F200031A6840F29413C2F2EF
:1056180000031B68D21A40F26C13C2F200035A60EE
:1056280013E040F29813C2F200031A6840F2941390
:10563800C2F200031B68D31A03F57F4202F1FF028E
:1056480040F26C13C2F200035A6040F26C13C2F2CB
:1056580000035A684CF60933C8F63D53A3FB0213FE
:105668004FEA531240F26C13C2F200035A6040F240
:10567800A413C2F200034FF000021A704FF48060C6
:10568800C4F200004FF0080106F0F8FBC5E04FF443
:105698008060C4F200004FF0100106F0BFFB034623
:1056A800012B40F0BA8040F2A513C2F200031B7828
:1056B800002B2BD14DF2C403C2F201034FF00C02B0
:1056C8001A804DF2C403C2F201034FF002025A805D
:1056D8004FF48060C4F200004DF2C401C2F201012F
:1056E80006F00AF94FF48060C4F2000006F0FCF9F5
:1056F800024640F29C13C2F200031A6040F2A5135E
:10570800C2F200034FF001021A707EE040F2A513C6
:10571800C2F200031B78012B77D14DF2C403C2F209
:1057280001034FF00C021A804DF2C403C2F20103C8
:105738004FF000025A804FF48060C4F200004DF22E
:10574800C401C2F2010106F0D7F84FF48060C4F238
:10575800000006F0C9F9024640F2A013C2F20003A5
:105768001A6040F27413C2F200035A6840F27413CC
:10577800C2F200031A6040F2A013C2F200031A68D2
:1057880040F29C13C2F200031B689A4210D940F2FF
:10579800A013C2F200031A6840F29C13C2F200037D
:1057A8001B68D21A40F27413C2F200035A6013E065
:1057B80040F2A013C2F200031A6840F29C13C2F22E
:1057C80000031B68D31A03F57F4202F1FF0240F27F
:1057D8007413C2F200035A6040F27413C2F2000359
:1057E8005A684CF60933C8F63D53A3FB02134FEA37
:1057F800531240F27413C2F200035A6040F2A51328
:10580800C2F200034FF000021A704FF48060C4F235
:1058180000004FF0100106F031FB80BD80B400AFEE
:1058280040F25C13C2F200035A6840F25C13C2F201
:1058380000031B68D31A642B0CDC40F25C13C2F221
:1058480000031A6840F25C13C2F200035B68D31AC3
:10585800642B02DD4FF0000304E040F25C13C2F257
:1058680000031B681846BD4680BC704780B400AF73
:1058780040F26413C2F200035A6840F26413C2F2A1
:1058880000031B68D31A642B0CDC40F26413C2F2C9
:1058980000031A6840F26413C2F200035B68D31A6B
:1058A800642B02DD4FF0000304E040F26413C2F2FF
:1058B80000031B681846BD4680BC704780B400AF23
:1058C80040F26C13C2F200035A6840F26C13C2F241
:1058D80000031B68D31A642B0CDC40F26C13C2F271
:1058E80000031A6840F26C13C2F200035B68D31A13
:1058F800642B02DD4FF0000304E040F26C13C2F2A7
:1059080000031B681846BD4680BC704780B400AFD2
:1059180040F27413C2F200035A6840F27413C2F2E0
:1059280000031B68D31A642B0CDC40F27413C2F218
:1059380000031A6840F27413C2F200035B68D31ABA
:10594800642B02DD4FF0000304E040F27413C2F24E
:1059580000031B681846BD4680BC704780B485B0FC
:1059680000AFF860B9607A60FB68A3F10403FB60DC
:10597800FB684FF080721A60FB68A3F10403FB60B8
:10598800BA68FB681A60FB68A3F10403FB60FB6854
:105998004FF000021A60FB68A3F11403FB607A68F9
:1059A800FB681A60FB68A3F10403FB60FB686FF0F7
:1059B80002021A60FB68A3F12003FB60FB6818462B
:1059C80007F11407BD4680BC704700BF054B196836
:1059D8000868B0E8F04F80F309884FF0000080F3C2
:1059E80011887047B0010020C2480068006880F341
:1059F800088862B600DF00BF80B584B000AF4FF4FE
:105A08006443CEF20003FB60FB681B78DBB2BB602B
:105A1800FB684FF0FF021A70FB681B78DBB2FB7162
:105A2800FB79DBB203F05003DAB240F2A813C2F2FA
:105A380000031A7040F2AC13C2F200034FF00702E1
:105A48001A6011E040F2AC13C2F200031B6803F1C4
:105A5800FF3240F2AC13C2F200031A60FB79DBB2EA
:105A68004FEA4303DBB2FB71FB79DBB2DBB25BB21B
:105A7800002BE7DB40F2AC13C2F200031B684FEACD
:105A8800032240F2AC13C2F200031A6040F2AC13D6
:105A9800C2F200031B6803F4E06240F2AC13C2F2E6
:105AA80000031A60BB68DAB2FB681A704EF620531E
:105AB800CEF200034EF62052CEF20002126842F4F3
:105AC80070021A604EF62053CEF200034EF62052B2
